:100000000C9434000C943E000C943E000C943E0082
:100010000C943E000C943E000C943E000C943E0068
:100020000C943E000C943E000C943E000C943E0058
:100030000C943E000C943E000C943E000C943E0048
:100040000C943E000C943E000C943E000C943E0038
:100050000C943E000C943E000C943E000C943E0028
:100060000C943E000C943E0011241FBECFEFD8E04C
:10007000DEBFCDBF0E9440000C9471000C940000C4
:1000800084B18C6184B98AB18B7F8AB98BB1846069
:100090008BB94A9B22C084E085B92FEB87E299E0B7
:1000A000215080409040E1F700C0000088E085B911
:1000B0002FEB87E299E0215080409040E1F700C0AB
:1000C000000080E185B92FEB87E299E02150804064
:1000D0009040E1F700C00000DCCF85B1837E85B998
:0600E000D8CFF894FFCF19
:00000001FF
